:020000040800F2
:100000000000012069830008C97C0008D57C000835
:10001000E57C0008F57C0008057D00080000000074
:100020000000000000000000000000000B7D000840
:10003000177D000800000000237D00082F7D0008C8
:10004000B9830008B9830008B9830008B9830008A0
:10005000B9830008B9830008B9830008B983000890
:100060003B7D0008497D0008B9830008B98300087A
:10007000B9830008B9830008B9830008B983000870
:10008000B9830008B9830008B9830008B983000860
:10009000B9830008B9830008B9830008B983000850
:1000A000597D0008B9830008B9830008B9830008A6
:1000B000B98300080000000000000000B9830008B8
:1000C000B9830008B9830008B9830008B983000820
:1000D000B9830008B9830008B98300086D7D000862
:1000E000B9830008B9830008000000000000000088
:1000F0000000000000000000000000000000000000
:1001000000000000B983000800000000B983000867
:100110000000000000000000857D0008B983000891
:10012000B9830008B9830008B9830008B9830008BF
:10013000B98300080000000000000000000000007B
:10014000B9830008B9830008B983000800000000E3
:10015000B9830008B9830008997D0008B9830008B5
:10016000B9830008B9830008B983000800000000C3
:10017000B9830008B98300080000000000000000F7
:10018000B9830008B9830008B983000800000000A3
:1001900010B5054C237833B9044B13B10448AFF3C1
:1001A00000800123237010BDD80000200000000053
:1001B000148D000808B5034B1BB103490348AFF386
:1001C000008008BD00000000DC000020148D000845
:1001D00053B94AB9002908BF00281CBF4FF0FF31AE
:1001E0004FF0FF3000F06CB9ADF1080C6DE904CEB2
:1001F00000F006F8DDF804E0DDE9022304B0704702
:100200002DE9F047089E0D4604468E46002B40F02F
:1002100082808A42174646D9B2FA82F24AB1C2F1C6
:10022000200105FA02F320FA01F1974041EA030E9A
:1002300094404FEA1748230CBEFBF8FCB9B208FB08
:100240001CEE43EA0E430CFB01F098420AD9FB185E
:100250000CF1FF3580F01681984240F21381ACF129
:10026000020C3B441B1AA4B2B3FBF8F008FB10339A
:1002700044EA034400FB01F1A14209D93C1900F111
:10028000FF3380F00181A14240F2FE8002383C44FD
:10029000641A40EA0C4000211EB1D4400023C6E994
:1002A0000043BDE8F08702B9FFDEB2FA82F2002A0D
:1002B0004FD1CB1B4FEA174E1FFA87F80121B3FB32
:1002C000FEFC250C0EFB1C3345EA034508FB0CF332
:1002D000AB4207D97D190CF1FF3002D2AB4200F2DC
:1002E000E7808446ED1AA3B2B5FBFEF00EFB105575
:1002F00043EA054408FB00F8A04507D93C1900F182
:10030000FF3302D2A04500F2D7801846A4EB0804C0
:1003100040EA0C40C0E78B4208D9002E00F0AF80C5
:100320000021C6E900050846BDE8F087B3FA83F16D
:1003300000294BD1AB4202D3824200F2B780841A2B
:1003400065EB030301209E46002EAAD0C6E9004EAD
:10035000A7E7C2F1200C01FA02F3974020FA0CF053
:100360004FEA174E21FA0CFC1843BCFBFEF1050CBA
:100370000EFB11CC1FFA87F845EA0C4501FB08F388
:10038000AB4204FA02F409D97D1901F1FF3C80F077
:100390008B80AB4240F2888002393D44EB1A85B233
:1003A000B3FBFEF00EFB103345EA034500FB08F3F8
:1003B000AB4207D97D1900F1FF3C71D2AB426FD936
:1003C00002383D44EB1A40EA014178E7C1F1200CC4
:1003D0008B4022FA0CF71F4320FA0CF405FA01F3C4
:1003E0004FEA174E25FA0CF51C43230CB5FBFEF91A
:1003F0001FFA87F80EFB195543EA054509FB08FA71
:10040000AA4502FA01F200FA01F308D97D1909F1AF
:10041000FF3047D2AA4545D9A9F102093D44A5EBD1
:100420000A05A4B2B5FBFEF00EFB105544EA0544E4
:1004300000FB08F8A04507D93C1900F1FF352DD283
:10044000A0452BD902383C4440EA0940A4EB0804FB
:10045000A0FB02894C45C6464D4619D316D05EB165
:10046000B3EB0E0264EB050404FA0CFCCA404CEA40
:100470000202CC40C6E900240021BDE8F0873146E5
:1004800030460EE7AC46EDE6184601E74345E6D2B6
:10049000B8EB020E69EB07050138E0E72846D3E721
:1004A00060468FE78146BAE7614677E708464BE743
:1004B000ACF1020C3D4415E702383C4426E700BF8E
:1004C000704700BF034613F8012B002AFBD1181A0E
:1004D000013870470000000000000000000000002C
:1004E00001F0FF01102A2BDB10F0070F08D010F8E5
:1004F000013B013A8B422DD010F0070F42B3F6D1E9
:10050000F0B441EA012141EA014122F007047FF001
:1005100000070023F0E80256083C85EA010586EA58
:10052000010685FA47F5A3FA87F586FA47F6A5FA94
:1005300087F68EB9EED1F0BC01F0FF0102F00702A0
:1005400032B110F8013B013A83EA010313B1F8D14B
:100550000020704701387047002D06BF354603382C
:10056000073815F0010F07D1013015F4807F02BF65
:10057000013015F4C03F0130F0BC0138704700BFB6
:1005800080B582B000AF0346FB71002240210748CE
:1005900002F0A0F9F91D4FF6FF730122044803F0A1
:1005A00003FD00BF0837BD4680BD00BF00080048FE
:1005B0000C91002080B582B000AF0346FB71012290
:1005C0004021074802F086F9F91D4FF6FF7301221A
:1005D000044803F0E9FC00BF0837BD4680BD00BFFA
:1005E000000800480C91002080B582B000AF03469F
:1005F000FB8001224021074802F06CF9B91D4FF63B
:10060000FF730222044803F0CFFC00BF0837BD4649
:1006100080BD00BF000800480C91002090B583B059
:1006200000AF0446084611461A462346FB8003469F
:10063000BB800B467B8013463B802A20FFF7A0FF40
:10064000FB881B0A9BB2DBB21846FFF7B3FFFB889F
:10065000DBB21846FFF7AEFF7B881B0A9BB2DBB20A
:100660001846FFF7A7FF7B88DBB21846FFF7A2FF0B
:100670002B20FFF785FFBB881B0A9BB2DBB2184615
:10068000FFF798FFBB88DBB21846FFF793FF3B8864
:100690001B0A9BB2DBB21846FFF78CFF3B88DBB22C
:1006A0001846FFF787FF2C20FFF76AFF00BF0C37C3
:1006B000BD4690BD80B500AF00224FF400416C48AC
:1006C00002F008F9002280216A4802F003F90C20A8
:1006D00001F016FE01228021664802F0FBF80C2092
:1006E00001F00EFE1120FFF74BFF0C2001F008FE79
:1006F0003620FFF745FF0020FFF75CFF3A20FFF7A9
:100700003FFF6520FFF756FFB220FFF739FF0C20AF
:10071000FFF750FF0C20FFF74DFF0020FFF74AFFC7
:100720003320FFF747FF3320FFF744FFB720FFF7E1
:1007300027FF7220FFF73EFFBB20FFF721FF3D2080
:10074000FFF738FFC020FFF71BFF2C20FFF732FF19
:10075000C220FFF715FF0120FFF72CFFC320FFF792
:100760000FFF1920FFF726FFC420FFF709FF202005
:10077000FFF720FFC620FFF703FF0F20FFF71AFF48
:10078000D020FFF7FDFEA420FFF714FFA120FFF704
:1007900011FFE020FFF7F4FED020FFF70BFF04204D
:1007A000FFF708FF0D20FFF705FF1120FFF702FFFD
:1007B0001320FFF7FFFE2B20FFF7FCFE3F20FFF783
:1007C000F9FE5420FFF7F6FE4C20FFF7F3FE182049
:1007D000FFF7F0FE0D20FFF7EDFE0B20FFF7EAFE1E
:1007E0001F20FFF7E7FE2320FFF7E4FEE120FFF7DD
:1007F000C7FED020FFF7DEFE0420FFF7DBFE0C2053
:10080000FFF7D8FE1120FFF7D5FE1320FFF7D2FE29
:100810002C20FFF7CFFE3F20FFF7CCFE4420FFF750
:10082000C9FE5120FFF7C6FE2F20FFF7C3FE1F2091
:10083000FFF7C0FE1F20FFF7BDFE2020FFF7BAFE26
:100840002320FFF7B7FE2120FFF79AFE2920FFF7AC
:1008500097FEEF23EF2200210020FFF7DFFE0122A9
:100860004FF40041024802F035F800BF80BD00BFE0
:10087000000400480008004880B584B000AF03467B
:10088000FB80EF23EF2200210020FFF7C7FE0023AB
:10089000FB8109E0FB895B001A46164B1344FA887A
:1008A0001A80FB890133FB81FB895B00B3F5906FF4
:1008B000F0DB01224021104802F00CF80023BB813C
:1008C0000AE04FF6FF734FF490620A490B4803F0B9
:1008D0006BFBBB890133BB81BA891346DB00134430
:1008E000DB01B3F5E13FECDB00BF00BF1037BD46D5
:1008F00080BD00BFF4000020000800480C910020DB
:1009000090B585B000AF0446084611461A46234606
:10091000FB800346BB800B46FB7013463B80FB8885
:10092000E82B3CD8BB88E02B39D8FB880F339AB230
:10093000BB881F339BB2B988F888FFF76FFEFB783E
:10094000203BFB70FB785E2B01D91F23FB7000233B
:10095000FB7320E0FA78FB7B1349D2010A4413446D
:100960001B78BB7300237B730FE097F90E30002BCD
:1009700001DA3B8800E03B8C1846FFF735FEBB7B75
:100980005B00BB737B7B01337B737B7B072BECD9D9
:10099000FB7B0133FB73FB7B3F2BDBD900E000BF0C
:1009A0001437BD4690BD00BFF0A1000880B500AF70
:1009B000FFF780FE0020FFF75FFF074B00221A8041
:1009C000064B00221A80064B00221A80054B01229A
:1009D0001A8000BF80BD00BFC0080020C2080020F0
:1009E000C4080020C608002090B484B000AF0346BD
:1009F000FB71FB790A2B55D14C4BB3F90030452BD9
:100A00001ADD4B4BB3F9003001334A4A82FB031223
:100A10001A449111DA178A1A462101FB02F29A1A36
:100A200012B2434B1A80414BB3F900309BB2013BE9
:100A30009BB21AB23D4B1A803C4BB3F900309BB2CB
:100A400001339BB21AB2394B1A803B4BB3F90030D9
:100A50000133384A82FB03121A449111DA178A1AB9
:100A6000462101FB02F29A1A12B2334B1A80324B22
:100A7000B3F9003046332F4A82FB03121A44911116
:100A8000DA178A1A462101FB02F29A1A1346BB8131
:100A9000BA892A4913465B0013449B000B44002289
:100AA0001A703EE0244BB3F900304633214A82FBF2
:100AB00003121A449111DA178A1A462101FB02F235
:100AC0009A1A1346FB81FA891C4913465B001344AA
:100AD0009B000B441B780A2B23D8F989FA89174805
:100AE00013465B0013449B0003441B780133DCB2C4
:100AF000124813465B0013449B00034420461870C1
:100B00000E4813465B0013449B0003441B781846B1
:100B10000A4A0B465B000B449B0013440344FA79DA
:100B20001A701037BD4690BC704700BFC608002041
:100B3000C0080020EBA00EEAC208002078050020C3
:100B400080B400AF044B1B8815339AB2024B1A8055
:100B500000BFBD4680BC70470000002080B400AFDD
:100B6000044B1B8822339AB2024B1A8000BFBD4649
:100B700080BC70470200002080B400AF034B052208
:100B80001A8000BFBD4680BC704700BF0000002037
:100B900080B400AF034B02221A8000BFBD4680BC68
:100BA000704700BF0200002090B585B002AF034639
:100BB000FB71084B1888084B1988084B1C88084B98
:100BC0001B88FA7900932346FFF79AFE00BF0C3783
:100BD000BD4690BD0000002002000020040000205F
:100BE0007405002080B400AF164BB3F900301A46EC
:100BF000154BB3F90030D31A4633144A82FB031263
:100C00001A449111DA178A1A462101FB02F29A1A44
:100C1000002A12D00B4BB3F9003045330B4A82FB4C
:100C200003121A449111DA178A1A462101FB02F2C3
:100C30009A1A12B2034B1A8000E000BFBD4680BC76
:100C4000704700BFC4080020C0080020EBA00EEAD7
:100C500080B400AF164BB3F900301A46154BB3F908
:100C60000030D31A4633144A82FB03121A449111FE
:100C7000DA178A1A462101FB02F29A1A002A12D0C8
:100C80000B4BB3F9003001330B4A82FB03121A44B9
:100C90009111DA178A1A462101FB02F29A1A12B24E
:100CA000034B1A8000E000BFBD4680BC704700BF08
:100CB000C4080020C2080020EBA00EEA80B582B074
:100CC00000AF0020FFF7D8FDFFF762FF2D4BB3F90F
:100CD0000030FB800023BB8049E0FFF74DFF01237C
:100CE0007B8011E0FA887988274813465B0013441B
:100CF0009B0003440B441B781846FFF755FFFFF792
:100D00001FFF7B8801337B80FA881F4913465B00F5
:100D100013449B000B441B789BB27A889A42E1D91A
:100D2000FB881A4AB2F900209B1A4633184A82FB04
:100D300003121A449111DA178A1A462101FB02F2B2
:100D40009A1A002A17D0FFF709FFFB880133104ACF
:100D500082FB03121A449111DA178A1A462101FB09
:100D600002F29A1A1346FB80BB880133BB80BB8812
:100D7000062BB2D900E000BFFFF7FEFE00BF083728
:100D8000BD4680BDC408002078050020C2080020B0
:100D9000EBA00EEA80B500AF174BB3F90030073374
:100DA000164AB2F900209B1A4633154A82FB0312F9
:100DB0001A449111DA178A1A462101FB02F29A1A93
:100DC000002A15D10C4BB3F9003001330C4A82FBD9
:100DD00003121A449111DA178A1A462101FB02F212
:100DE0009A1A12B2044B1A80FFF768FF012300E041
:100DF0000023184680BD00BFC4080020C2080020A0
:100E0000EBA00EEA90B585B002AF0346FB71FB790B
:100E10000A2B06D0174B1B88DB2B02D90A20FFF7C1
:100E2000F1FFFB791846FFF7DFFDFB790A2B09D1AB
:100E3000FFF7B0FF0346002B18D1FFF78FFEFFF737
:100E40009BFE13E00B4B18880B4B19880B4B1C882F
:100E50000B4B1B88FA7900932346FFF751FD054B96
:100E60001B8815339AB2034B1A8000E000BF0C3781
:100E7000BD4690BD000000200200002004000020BC
:100E80007405002080B584B000AF78607B68FB609B
:100E900007E0FB681B781846FFF7B4FFFB680133D7
:100EA000FB60FB681B78002BF3D100BF00BF10373D
:100EB000BD4680BD80B483B000AF0346FB71124BCA
:100EC0001B881BB21A46FB7999B2104B23F81210FB
:100ED0000D4B1B881BB201335A42C3F30803C2F304
:100EE000080258BF53421AB2074B1A80084B1B889E
:100EF0001BB29BB201339BB21AB2054B1A8000BFE2
:100F00000C37BD4680BC7047DC0F0020DC0B002096
:100F1000DE0F002080B584B000AF03463A60FB804E
:100F20000B467B71FB88DBB21846FFF7C3FF7B796A
:100F30001846FFF7BFFF0023FB8109E0FB893A68F1
:100F400013441B781846FFF7B5FFFB890133FB817B
:100F5000FA89FB889A42F1D300BF00BF1037BD4623
:100F600080BD000080B400AF0F4B1B881BB25A42FB
:100F7000C3F30803C2F3080258BF53421AB20B4B23
:100F8000B3F900305942C3F30803C1F3080158BF55
:100F90004B421BB29A420CBF01230023DBB218461E
:100FA000BD4680BC704700BFDC0F0020E00F002072
:100FB00080B483B000AF124BB3F900301A46114B26
:100FC00033F81230FB800E4BB3F9003001335A4234
:100FD000C3F30803C2F3080258BF53421AB2084BC6
:100FE0001A80094B1B881BB29BB2013B9BB21AB201
:100FF000054B1A80FB8818460C37BD4680BC7047ED
:10100000E00F0020DC0B0020DE0F002080B584B054
:1010100002AF7860074B1A687B6800931346064A54
:101020004FF48071054807F009FA044B1846083759
:10103000BD4680BDC80A0020308D0008DC0A0020B3
:1010400080B59AB000AF4FF400720021314807F02C
:10105000EDF9314A07F1080311465822184607F006
:10106000D7F92E4B1B687B612D4B1B883B840123DA
:1010700087F822302B4B1B68BB642B4B1B687B65AE
:1010800007F108031A464FF40071224800F038FBBC
:1010900078667A6E1F49002001F0A0F838663A6E33
:1010A0007B6E9A4201D0002330E0204A4FF4007159
:1010B000184800F0A3FE0346022B26D1B91DF81DE7
:1010C0004FF40073134A00F007FC0346012B02D1D2
:1010D000BB79002B0CD0164804F0F6FCBB791946FE
:1010E000144804F0F1FC144804F0EEFC00230DE079
:1010F0000F4804F0E9FCBB791946104804F0E4FC01
:101100000D4804F0E1FC012300E000231846683795
:10111000BD4680BDC8080020848D0008CC0A002090
:10112000D80A0020D00A0020D40A0020FF2100089D
:10113000448D00084C8D0008748D0008788D0008DF
:1011400080B58CB004AF4FF4007200212F4807F037
:101150006DF90023BB610023FB6000233B6100238A
:101160007B612B48FFF752FF0346FB6007F1180332
:10117000029307F10C030193012300930123002242
:101180004FF40071214800F046FFF861FA691F49E9
:10119000002001F023F81F4A4FF400711B4800F0B3
:1011A0002DFE0346092B22D13B463A1D07F10A00CA
:1011B0004FF40071019115490091012100F0A7FF42
:1011C0003B68002B0AD0144804F07EFC134804F05E
:1011D0007BFC134804F078FC032312E00E4804F073
:1011E00073FC104804F070FC0D4804F06DFC0A48D4
:1011F00004F06AFC0C4804F067FC094804F064FC45
:10120000022318462037BD4680BD00BFC808002015
:10121000DC8D0008FF210008448D0008EC8D0008DB
:10122000748D0008048E0008148E000880B400AF8E
:1012300003231846BD4680BC7047000090B58FB0B0
:1012400008AFFFF7B5FE0346BB82FFF7B1FE0346CA
:10125000FB740023FB820AE0FFF7AAFE03461A464E
:10126000FB8AD1B22B4AD154FB8A0133FB82FA8A22
:10127000BB8A9A42F0D300233B6000237B600023AB
:10128000BB60FB7C032B12D0032B16DC012B02D09E
:10129000022B06D011E02048FFF7B8FE03463B6062
:1012A0000CE01E48FFF7B2FE03463B6006E01C4818
:1012B000FFF7ACFE03463B6000E000BFBB8A06932D
:1012C000144B059302AC3B4693E8070084E8070003
:1012D0000123019300230093002300224FF40071A7
:1012E000104800F0FBFDF8600F4804F0EDFBBB8AEE
:1012F00019460E4804F0E8FB0D4804F0E5FBFA68D7
:101300000849002000F06AFF022318461C37BD463A
:1013100090BD00BFE40F0020248E00083C8E000822
:10132000588E0008C8080020448D0008708E000800
:10133000748D000890B59BB008AF4FF40072002187
:101340008E4807F073F88E4A4FF400718B4800F016
:1013500055FD0346032B40F0058107F1240407F1F6
:10136000270207F1280107F12F004FF400730493BF
:10137000824B039307F12003029307F11C030193AF
:1013800007F110030093234600F0FBFA00237B646F
:1013900000237B6408E0BA697B6C13441B783D2B07
:1013A00007D07B6C01337B647B697A6C9A42F2DBF9
:1013B00000E000BF7A697B6CD31A591EBA697B6C56
:1013C0000133134400930B466E4A4FF480716E480C
:1013D00007F034F80023A7F84230FB691B7887F840
:1013E0003D30FB695A78694B5A70FB699A78674BB4
:1013F0009A7097F83D30012B02D0032B40D081E04A
:10140000FB6903331B789BB21B029AB2FB6904335E
:101410001B789BB213447B87FB695B7987F8393073
:10142000FB699B7987F83830FB69DB7987F83730BF
:1014300097F8373097F8392097F83810788F06F0FA
:101440005BF9534804F040FB798F97F8392097F8FF
:10145000380097F83730009303464E4804F034FBC9
:101460004D4804F031FB494B0022DA70474B012212
:101470001A71464B02221A700523A7F8423041E048
:101480000023A7F840300023FB8720E0FA8F434970
:1014900013465B0013445B000B4404331B88002B92
:1014A00012D0FA8FB7F840300633384919443B4818
:1014B00013465B0013445B0003441B880B80B7F8A2
:1014C00040300233A7F84030FB8F0133FB87FB8F9E
:1014D000632BDBD92D4B04221A702C4B0022DA70BF
:1014E000B7F840301B0A9BB2DAB2284B1A71B7F832
:1014F0004030DAB2254B5A71B7F840300633A7F8BE
:10150000423000BF00237B600023BB600023FB60F0
:101510001D48FFF77BFD03467B60B7F8423006931A
:101520001A4B059302AC3B1D93E8070084E80700C3
:101530000123019300230093002300224FF4007144
:101540000E4800F0CBFC38633A6B0C49002000F0E9
:1015500045FE0F4804F0B8FA114804F0B5FA0E48F9
:1015600004F0B2FAFFF7FEFC0346002B01D104237E
:1015700000E0022318464C37BD4690BDC808002045
:10158000FF210008808E0008E4110020E4120020F2
:10159000448D0008A88E0008748D0008C4710020D6
:1015A000D08E000880B485B000AFF860B9607A6072
:1015B0003B600A4AFB681360094ABB681360094A2A
:1015C0007B681360084A3B681360084A3B8B1380B2
:1015D00000BF1437BD4680BC704700BFC80A00205A
:1015E000CC0A0020D00A0020D40A0020D80A00200B
:1015F00080B582B000AF0D4804F066FA0C4804F0E4
:1016000063FA0C4804F060FA0023FB7106E0FB79F2
:10161000094A52F8233098470346FB71FB79052BA2
:10162000F5D100BF00BF0837BD4680BD448D00081E
:10163000DC8E0008748D00080800002090B585B08D
:1016400000AF78600023FB607B681B7A032B02D11C
:101650000C23FB6005E07B681B7A042B01D10A2375
:10166000FB607B680C3393E8070000F0AEFB034699
:101670000233FA681344FB607B68DB7E002B13D0D7
:101680007B68243393E8070000F09FFB03469C1C13
:101690007B68303393E8070000F097FB0346234450
:1016A0000233FA681344FB607B681B6C002B03D188
:1016B0007B689B6C002B0AD07B68403393E8070063
:1016C00000F083FB03460233FA681344FB607B6837
:1016D000DB6C002B03D17B685B6D002B0AD07B6831
:1016E0004C3393E8070000F070FB03460233FA68BE
:1016F0001344FB60FB6818461437BD4690BD0000DC
:1017000080B58AB000AFF860B9607A60FB68FB61B1
:101710000023BB6100237B6100233B624FF0FF335A
:101720007B627868FFF78AFF3862386A00F006FA51
:101730000246BB68934203DA6FF001037B62C2E0AA
:1017400000233B763B7E012262F307133B763A7E11
:1017500007F11C031146184600F07DFAFB69396A4F
:10176000184600F080F90246FB691344FB617B6870
:101770001B7A042B0CD107F11C035549184600F0C5
:10178000A6FA07F11C030421184600F064FA0BE0E6
:1017900007F11C034F49184600F099FA07F11C03A2
:1017A0000321184600F057FA00233B757B689B7EA7
:1017B00003F00103DAB23B7D62F341033B757B68C2
:1017C000DB7E002B14BF01230023DAB23B7D62F3E2
:1017D00082033B753B7D03F00403DBB2002B13D087
:1017E0007B6893F83D3003F00303DAB23B7D62F38C
:1017F000C4033B757B6893F83C3003F00103DAB215
:101800003B7D62F345133B757B681B6C002B03D15A
:101810007B689B6C002B03D03B7D43F080033B75C2
:101820007B68DB6C002B03D17B685B6D002B03D0E6
:101830003B7D43F040033B753A7D07F11C031146A5
:10184000184600F008FA7B681B8B1A4607F11C0348
:101850001146184600F013FA7B6807F11C000C33A0
:101860000ECB00F053FA7B68DB7E002B0DD07B683B
:1018700007F11C0024330ECB00F048FA7B6807F117
:101880001C0030330ECB00F041FA3B7D23F07F0388
:10189000DBB2002B06D07B6807F11C0040330ECB77
:1018A00000F034FA3B7D03F04003DBB2002B06D09E
:1018B0007B6807F11C004C330ECB00F027FAFA6965
:1018C000FB68D31A7B627B6A18462837BD4680BD09
:1018D000E08E0008E88E000880B58AB000AFF8609E
:1018E000B9607A603B600023FB617B68BB610023C9
:1018F0003B6200237B6200233B6107F1180318461B
:1019000000F096F903463B773B7F23F00F03DBB2F1
:10191000202B2ED1BB6907F114021146184600F0A6
:1019200057F978627A6ABB691344BB61BB697A690B
:1019300013443B62BB693A6AD31A012B1BDD07F1E2
:101940001803184600F074F903463B743B7CC3F35C
:101950000003DBB21A46FB681A7007F11803184639
:1019600000F066F903461A46BB681A7001237B62D1
:1019700002E000BF00E000BF7B6A18462837BD4682
:1019800080BD80B58AB000AFF860B9607A603B6016
:101990000023FB61FB6BBB6100233B6200237B6286
:1019A00000237B6107F11803184600F041F9034654
:1019B0003B773B7F23F00F03DBB2302B4BD13B7FD8
:1019C000C3F3C003DBB21A46FB681A703B7FC3F354
:1019D0004103DBB21A46BB681A603B7FC3F30003C6
:1019E000DBB21A467B681A70BB6907F11402114614
:1019F000184600F0EDF878627A6ABB691344BB615F
:101A0000BB697A6913443B6207F118033A6A1946C5
:101A1000386B00F0A9F90346002B1ED0BB693A6A67
:101A2000D31A002B19DBBB681B68002B08DD07F1FC
:101A30001803184600F0E2F803469AB23B681A8091
:101A4000BB693A6AD21ABB6B1A60BA697B6B1A60BF
:101A500001237B6202E000BF00E000BF7B6A184602
:101A60002837BD4680BD80B485B000AF786039604E
:101A70000023FB603B685A4203F07F0302F07F02C1
:101A800058BF5342FB723B68002B00DA7F33DB11F7
:101A90003B603B68002B03DDFB7A63F07F03FB7246
:101AA000FB685A1CFA601A467B681344FA7A1A706B
:101AB0003B68002BDEDCFB6818461437BD4680BC53
:101AC000704780B586B000AF7860396001237B61D4
:101AD00000233B613B6800221A604FF0FF33FB603C
:101AE0003B6901333B613B69042B03DD4FF0FF335E
:101AF000FB601DE007F10B027B680121104698474F
:101B0000F860FB68012B12D13B681A68FB7A03F07E
:101B10007F03796901FB03F31A443B681A607B6910
:101B2000DB017B61FB7A5BB2002BD6DB00E000BF00
:101B30003B6918461837BD4680BD000080B483B0AD
:101B400000AF78607B6801337B607B687F2B03DCB0
:101B50007B6801337B6012E07B68B3F5804F03DA6A
:101B60007B6802337B600AE07B68084A934203DCAF
:101B70007B6803337B6002E07B6804337B607B68B7
:101B800018460C37BD4680BC704700BFFEFF1F00E3
:101B900080B485B000AF786039600023FB600AE054
:101BA0000A4B1B685A1C09490A601A787B681A702C
:101BB000FB680133FB60FA683B689A42F0DB3B68E4
:101BC00018461437BD4680BC704700BF6413002020
:101BD00080B582B000AF78603960064A7B681360D8
:101BE00039680548FFF76DFF034618460837BD46BC
:101BF00080BD00BF64130020911B000880B485B035
:101C000000AF78607B681B68FB60FB681B781B0279
:101C1000FA68013212781344BB607B681B689A1C17
:101C20007B681A60BB6818461437BD4680BC704795
:101C300080B485B000AF78607B681B681B78FB734D
:101C40007B681B685A1C7B681A60FB7B184614373C
:101C5000BD4680BC704780B483B000AF78600B464F
:101C6000FB707B681B68FA781A707B681B685A1CCB
:101C70007B681A6000BF0C37BD4680BC704780B4DB
:101C800083B000AF786039603B68002B00DAFF3327
:101C90001B121A467B681B68D2B21A707B681B68DD
:101CA0005A1C7B681A603B685A42DBB2D2B258BFFA
:101CB00053427A681268DBB213707B681B685A1C47
:101CC0007B681A6000BF0C37BD4680BC704780B58A
:101CD00084B000AF786039603868FEF7F3FB0346E4
:101CE000FB60F9687868FFF7CAFF7B681B68FA68D1
:101CF0003968184606F08CFB7B681A68FB681A4442
:101D00007B681A6000BF1037BD4680BD80B584B0C7
:101D100000AFF860384680E80E007B68002B12DDCB
:101D20007B681946F868FFF7AAFFFB681B68B9686B
:101D30007A68184606F06CFBFB681B687A681A44E0
:101D4000FB681A600CE03B68002B05D03B68194625
:101D5000F868FFF7BCFF03E00021F868FFF78FFF8A
:101D600000BF1037BD4680BD80B586B000AFF860BB
:101D7000B9607A6000237B61BB681B687A68D31AFC
:101D8000012B1ADDB868FFF739FF0246FB685A607D
:101D9000BB681B68FA68526813447A689A420CD38D
:101DA000BB681A68FB689A60BB681B68FA6852686F
:101DB0001A44BB681A6001237B61FB6800221A6029
:101DC0007B6918461837BD4680BD80B586B000AF28
:101DD0003B1D83E8070000237B617B68002B06D056
:101DE0007B681846FEF76EFB03467B6101E0BB682B
:101DF0007B617B6918461837BD4680BD80B588B0C9
:101E000000AFF860B9607A604FF0FF33FB610023E8
:101E10007B610023BB6100233B617B680121F86883
:101E200098470346012B2FD10123BB6107F1100313
:101E300019467868FFF745FEFB6801333A69114699
:101E40001846FFF710FE0246BB691344BB613A69AE
:101E5000BB691344BA689A4218DB3B69002B0AD06D
:101E6000BB69FA681A4439697B681046984702468C
:101E70003B699A420CD1FB681B783B753B7DC3F3F1
:101E80000313DBB2FB6104E000BF02E000BF00E02F
:101E900000BFFB6918462037BD4680BD80B586B0BF
:101EA00000AFF860384680E80E0000237B613B46B7
:101EB00093E80700FFF789FF03469A1C3B6A134427
:101EC0007A6913447B61FB68002B02DD7B69023376
:101ED0007B617B6918461837BD4680BD80B58AB0E6
:101EE00002AFF860B9603B601346FB71FB687B6131
:101EF00000233B610023BB610023FB613B6C00932B
:101F000007F130030ECB3868FFF7C8FFB861B86936
:101F1000FFF714FE0246BB68934203DA6FF0010339
:101F2000FB614CE03B7C032262F307133B74FB79BB
:101F300003F00103DAB23B7C62F3C3033B743B68FA
:101F400003F00303DAB23B7C62F342033B7497F87D
:101F5000283003F00103DAB23B7C62F300033B74E8
:101F60003A7C07F1140311461846FFF774FE7B69AB
:101F7000B9691846FFF777FD02467B6913447B6118
:101F800007F1140007F130030ECBFFF7BFFE3B68EB
:101F9000002B06DDBA8D07F1140311461846FFF732
:101FA0006EFE7B693A6CF96B184606F031FA7A6975
:101FB0003B6C13447B617A69FB68D31AFB61FB6954
:101FC00018462037BD4680BD80B584B000AF78602C
:101FD00039600223BB600023FB6013E0FA681346FC
:101FE0005B0013449B001A463B68134493E80700C8
:101FF000FFF7EBFE03460333BA681344BB60FB688C
:102000000133FB60FA687B689A42E7DBBB681846DD
:102010001037BD4680BD80B58AB000AFF860B960AA
:1020200011461A460B46FB711346BB80FB68BB6129
:1020300000237B610023FB6100237B6200233B6262
:10204000796B386BFFF7C0FFF861F869FFF776FD31
:102050000246BB68934203DA6FF001037B6251E0F2
:1020600000233B753B7D082262F307133B75FB7928
:1020700003F00103DAB23B7D62F3C3033B753B7DA2
:10208000012262F342033B753A7D07F118031146C2
:102090001846FFF7E0FDBB69F9691846FFF7E3FC56
:1020A0000246BB691344BB61BA8807F118031146A5
:1020B0001846FFF7E4FD00233B621BE03A6A134633
:1020C0005B0013449B001A467B6B134407F1180016
:1020D0000ECBFFF71BFE3B6A9B00BA6B13441B68D9
:1020E000DAB207F1180311461846FFF7B4FD3B6A50
:1020F00001333B623A6A3B6B9A42DFDBBA69FB68A9
:10210000D31A7B627B6A18462837BD4680BD80B5EE
:102110008AB000AFF860B9607A603B600023FB6171
:102120003B6BBB6100233B6200237B6207F118031A
:102130001846FFF77DFD03463B773B7F23F00F03F7
:10214000DBB2902B42D1BB6907F11402114618464D
:10215000FFF73EFD78627A6ABB691344BB61BB69D5
:102160007A6913443B62BB693A6AD31A012B2FDDAB
:1021700007F118031846FFF741FD03469AB2FB68C2
:102180001A807B6800221A6019E07B681B68BA68B5
:102190009A4203DA4FF0FF337B621AE007F118032B
:1021A0001846FFF745FD034618467B681B68591C17
:1021B0007A6811609B003A68134402461A60BB6952
:1021C0003A6A9A42E1D801237B6202E000BF00E054
:1021D00000BF7B6A18462837BD4680BD80B584B0F5
:1021E00000AFF860B9607A607B689BB21946B86846
:1021F00004F006FD7B6818461037BD4680BD80B5EB
:1022000082B000AF786039603B689BB24FF47A725D
:102210001946786804F012FD034618460837BD4693
:1022200080BD80B582B000AF0023FB71032000F0B9
:1022300055F9002000F00EF80346002B02D00123D0
:10224000FB7101E005F01EFDFB7918460837BD461D
:1022500080BD000080B584B000AF78600023FB73C0
:10226000164B1B68002B22D0154B1A68134B1B68AA
:102270004FF47A71B1FBF3F3B2FBF3F3184600F0BD
:1022800062F90346002B0FD17B680F2B09D800227F
:1022900079684FF0FF3000F02CF90A4A7B68136030
:1022A00007E00123FB7304E00123FB7301E001233A
:1022B000FB73FB7B18461037BD4680BD2400002011
:1022C0006C0000202000002080B400AF054B1A688D
:1022D000054B1B681344034A136000BFBD4680BC16
:1022E000704700BF681300202400002080B400AFB6
:1022F000024B1B681846BD4680BC7047681300201F
:1023000080B584B000AF7860FFF7F0FFB8607B68FD
:10231000FB60FB68B3F1FF3F04D0094B1B68FA6810
:102320001344FB6000BFFFF7E1FF0246BB68D31A0E
:10233000FA689A42F7D800BF00BF1037BD4680BD8B
:102340002400002080B485B000AF78607B6803F083
:102350000703FB600C4BDB68BB60BA684FF6FF03FA
:102360001340BB60FB681A02BB68134343F0BF63B2
:1023700043F40033BB60044ABB68D36000BF14372A
:10238000BD4680BC704700BF00ED00E080B400AFE8
:10239000044BDB681B0A03F007031846BD4680BCEC
:1023A000704700BF00ED00E080B483B000AF03468B
:1023B000FB7197F90730002B0BDBFB7903F01F0251
:1023C000064997F907305B09012000FA02F241F84B
:1023D000232000BF0C37BD4680BC704700E100E001
:1023E00080B483B000AF03463960FB7197F90730C2
:1023F000002B0ADB3B68DAB20C4997F9073012016F
:10240000D2B20B4483F800230AE03B68DAB20849F1
:10241000FB7903F00F03043B1201D2B20B441A768E
:1024200000BF0C37BD4680BC704700BF00E100E034
:1024300000ED00E080B489B000AFF860B9607A6068
:10244000FB6803F00703FB61FB69C3F10703042B7F
:1024500028BF0423BB61FB690433062B02D9FB6947
:10246000033B00E000237B614FF0FF32BB6902FABF
:1024700003F3DA43BB681A407B699A404FF0FF319F
:102480007B6901FA03F3D9437B680B401343184679
:102490002437BD4680BC704780B582B000AF7860FD
:1024A0007B68013BB3F1807F01D301230FE00A4A2F
:1024B0007B68013B53600F214FF0FF30FFF790FF27
:1024C000054B00229A60044B07221A60002318462D
:1024D0000837BD4680BD00BF10E000E080B582B087
:1024E00000AF78607868FFF72DFF00BF0837BD4662
:1024F00080BD80B586B000AF0346B9607A60FB73DB
:1025000000237B61FFF742FF78617A68B9687869D8
:10251000FFF790FF024697F90F3011461846FFF774
:102520005FFF00BF1837BD4680BD80B582B000AFE9
:102530000346FB7197F907301846FFF735FF00BFD8
:102540000837BD4680BD80B582B000AF786078683E
:10255000FFF7A2FF034618460837BD4680BD80B589
:1025600084B000AF78600023FB737B6893F825305C
:10257000DBB2022B05D07B680422DA630123FB73F4
:1025800029E07B681B681A687B681B6822F00E02D2
:102590001A607B681B681A687B681B6822F001025E
:1025A0001A607B685B6C03F01C027B681B6C01216A
:1025B00001FA02F25A607B68012283F825207B68C9
:1025C000002283F824207B689B6B002B03D07B6860
:1025D0009B6B78689847FB7B18461037BD4680BDDB
:1025E00080B487B000AF7860396000237B6154E12C
:1025F0003B681A6801217B6901FA03F31340FB6011
:10260000FB68002B00F046813B685B68012B0BD018
:102610003B685B68022B07D03B685B68112B03D0DB
:102620003B685B68122B30D17B689B683B617B69A0
:102630005B00032202FA03F3DB433A6913403B6178
:102640003B68DA687B695B0002FA03F33A6913437B
:102650003B617B683A699A607B685B683B610122F9
:102660007B6902FA03F3DB433A6913403B613B6841
:102670005B681B0903F001027B6902FA03F33A6904
:1026800013433B617B683A695A607B68DB683B6156
:102690007B695B00032202FA03F3DB433A691340D0
:1026A0003B613B689A687B695B0002FA03F33A6915
:1026B00013433B617B683A69DA603B685B68022BD5
:1026C00003D03B685B68122B23D17B69DA087B68F7
:1026D000083253F822303B617B6903F007039B000B
:1026E0000F2202FA03F3DB433A6913403B613B6874
:1026F0001A697B6903F007039B0002FA03F33A6946
:1027000013433B617B69DA087B680832396943F817
:1027100022107B681B683B617B695B00032202FA25
:1027200003F3DB433A6913403B613B685B6803F0AA
:1027300003027B695B0002FA03F33A6913433B61CE
:102740007B683A691A603B685B6803F08053002B32
:1027500000F0A080584B1B6E574A43F001031366EC
:10276000554B1B6E03F00103BB60BB68534A7B698A
:102770009B08023352F823303B617B6903F003036B
:102780009B000F2202FA03F3DB433A6913403B61DB
:102790007B68B3F1904F19D07B68494A934213D0BC
:1027A0007B68484A93420DD07B68474A934207D0E2
:1027B0007B68464A934201D1042308E0072306E0E0
:1027C000032304E0022302E0012300E000237A69EE
:1027D00002F00302920093403A6913433B61374988
:1027E0007B699B0802333A6941F82320384B1B6808
:1027F0003B61FB68DB433A6913403B613B685B68C4
:1028000003F48033002B03D03A69FB6813433B6128
:102810002F4A3B6913602E4B5B683B61FB68DB43CF
:102820003A6913403B613B685B6803F40033002B5B
:1028300003D03A69FB6813433B61254A3B69536007
:10284000234B9B683B61FB68DB433A6913403B6168
:102850003B685B6803F48013002B03D03A69FB6884
:1028600013433B611A4A3B699360194BDB683B6138
:10287000FB68DB433A6913403B613B685B6803F4E8
:102880000013002B03D03A69FB6813433B61104AE5
:102890003B69D3607B6901337B613B681A687B6964
:1028A00022FA03F3002B7FF4A3AE00BF00BF1C3756
:1028B000BD4680BC704700BF0010024000000140D0
:1028C0000004004800080048000C004800100048C0
:1028D0000004014080B483B000AF78600B467B8079
:1028E00013467B707B78002B03D07A887B689A61D3
:1028F00002E07A887B689A6200BF0C37BD4680BCD4
:102900007047000080B582B000AF0346FB80084BE3
:102910005A69FB881340002B06D0054AFB88536197
:10292000FB88184604F0B8FF00BF0837BD4680BDDD
:102930000004014080B582B000AF78607B68002B56
:1029400001D1012381E07B6893F84130DBB2002B99
:1029500006D17B68002283F84020786804F0F4FFF9
:102960007B68242283F841207B681B681A687B6897
:102970001B6822F001021A607B685A687B681B683A
:1029800022F070621A617B681B689A687B681B681A
:1029900022F400429A607B68DB68012B07D17B68D8
:1029A0009A687B681B6842F400429A6006E07B6884
:1029B0009A687B681B6842F404429A607B68DB6813
:1029C000022B04D17B681B684FF400625A607B685D
:1029D0001B685B687A68126843F0007343F4004335
:1029E00053607B681B68DA687B681B6822F40042CE
:1029F000DA607B681A697B685B6942EA03017B687D
:102A00009B691A027B681B680A43DA607B68D96994
:102A10007B681A6A7B681B680A431A607B681B68BC
:102A20001A687B681B6842F001021A607B6800220A
:102A30005A647B68202283F841207B6800221A6355
:102A40007B68002283F84220002318460837BD46E1
:102A500080BD80B483B000AF786039607B6893F844
:102A60004130DBB2202B38D17B6893F84030012B0A
:102A700001D1022332E07B68012283F840207B6889
:102A8000242283F841207B681B681A687B681B68D6
:102A900022F001021A607B681B681A687B681B6859
:102AA00022F480521A607B681B6819687B681B6877
:102AB0003A680A431A607B681B681A687B681B685F
:102AC00042F001021A607B68202283F841207B6873
:102AD000002283F84020002300E0022318460C3730
:102AE000BD4680BC704780B485B000AF7860396067
:102AF0007B6893F84130DBB2202B39D17B6893F8A7
:102B00004030012B01D1022333E07B68012283F89E
:102B100040207B68242283F841207B681B681A6868
:102B20007B681B6822F001021A607B681B681B68C7
:102B3000FB60FB6823F47063FB603B681B02FA6870
:102B40001343FB607B681B68FA681A607B681B682C
:102B50001A687B681B6842F001021A607B682022B9
:102B600083F841207B68002283F84020002300E0A6
:102B7000022318461437BD4680BC704780B400AFAE
:102B8000034B1B6803F4C0631846BD4680BC704706
:102B90000070004080B485B000AF78607B68B3F50A
:102BA000007F30D1224B1B6803F4C063B3F5007F74
:102BB00038D01F4B1B6823F4C0631D4A43F40073D5
:102BC00013601C4B1B68322202FB03F31A4AA2FB60
:102BD00003239B0C0133FB6002E0FB68013BFB60BD
:102BE000134B5B6903F48063B3F5806F02D1FB681C
:102BF000002BF2D10E4B5B6903F48063B3F5806F59
:102C000010D103230FE00A4B1B6803F4C063B3F534
:102C1000806F07D0064B1B6823F4C063044A43F45B
:102C200080631360002318461437BD4680BC70478C
:102C3000007000406C00002083DE1B4380B588B02C
:102C400000AF78607B68002B02D1012300F011BC3B
:102C5000A04B9B6803F00C03BB619E4BDB6803F049
:102C600003037B617B681B6803F01003002B00F0FB
:102C7000E480BB69002B07D0BB690C2B40F08B8034
:102C80007B69012B40F08780924B1B6803F00203A5
:102C9000002B05D07B689B69002B01D10123E8E361
:102CA0007B681A6A8B4B1B6803F00803002B04D067
:102CB000884B1B6803F0F00305E0864BD3F8943093
:102CC0001B0903F0F003934223D27B681B6A18466A
:102CD00000F076FD0346002B01D00123C9E37D4BB4
:102CE0001B687C4A43F0080313607A4B1B6823F08F
:102CF000F0027B681B6A774913430B60754B5B6876
:102D000023F47F427B68DB691B02724913434B60EB
:102D100025E0704B1B686F4A43F0080313606D4B4E
:102D20001B6823F0F0027B681B6A6A4913430B603F
:102D3000684B5B6823F47F427B68DB691B02654953
:102D400013434B60BB69002B09D17B681B6A184693
:102D500000F036FD0346002B01D0012389E300F08B
:102D60006FFC02465B4B9B681B0903F00F035A493B
:102D7000CB5C03F01F0322FA03F3584A1360584B4D
:102D80001B681846FFF766FA0346FB73FB7B002BB4
:102D900052D0FB7B6DE37B689B69002B32D04D4B9F
:102DA0001B684C4A43F001031360FFF79FFA386138
:102DB00008E0FFF79BFA02463B69D31A022B01D9C0
:102DC000032356E3434B1B6803F00203002BF0D0B0
:102DD000404B1B683F4A43F0080313603D4B1B68A0
:102DE00023F0F0027B681B6A3A4913430B60394BAE
:102DF0005B6823F47F427B68DB691B023549134320
:102E00004B601AE0334B1B68324A23F00103136016
:102E1000FFF76CFA386108E0FFF768FA02463B6991
:102E2000D31A022B01D9032323E32A4B1B6803F097
:102E30000203002BF0D100E000BF7B681B6803F0A9
:102E40000103002B73D0BB69082B05D0BB690C2B89
:102E50000ED17B69032B0BD11E4B1B6803F400338F
:102E6000002B63D07B685B68002B5FD1012300E3FC
:102E70007B685B68B3F5803F06D1164B1B68154A2B
:102E800043F4803313601DE07B685B68B3F5A02FCB
:102E90000CD1104B1B680F4A43F4802313600D4B79
:102EA0001B680C4A43F4803313600BE0094B1B682A
:102EB000084A23F480331360064B1B68054A23F449
:102EC000802313607B685B68002B1BD0FFF70EFA32
:102ED000386110E00010024074D100086C0000203E
:102EE00020000020FFF702FA02463B69D31A642B48
:102EF00001D90323BDE2AF4B1B6803F40033002B61
:102F0000F0D014E0FFF7F2F9386108E0FFF7EEF9CE
:102F100002463B69D31A642B01D90323A9E2A54BCE
:102F20001B6803F40033002BF0D100E000BF7B6886
:102F30001B6803F00203002B60D0BB69042B05D093
:102F4000BB690C2B19D17B69022B16D1994B1B68DD
:102F500003F48063002B05D07B68DB68002B01D174
:102F6000012386E2934B5B6823F0F8527B681B6970
:102F70001B06904913434B6040E07B68DB68002BE5
:102F800023D08C4B1B688B4A43F480731360FFF78C
:102F9000ADF9386108E0FFF7A9F902463B69D31A99
:102FA000022B01D9032364E2824B1B6803F4806384
:102FB000002BF0D07F4B5B6823F0F8527B681B69D5
:102FC0001B067C4913434B6018E07A4B1B68794A17
:102FD00023F480731360FFF789F9386108E0FFF785
:102FE00085F902463B69D31A022B01D9032340E23B
:102FF000704B1B6803F48063002BF0D17B681B6867
:1030000003F00803002B3CD07B685B69002B1CD0CD
:10301000684BD3F89430674A43F00103C2F8943008
:10302000FFF764F9386108E0FFF760F902463B6991
:10303000D31A022B01D903231BE25E4BD3F8943041
:1030400003F00203002BEFD01BE05A4BD3F894306F
:10305000584A23F00103C2F89430FFF747F938616A
:1030600008E0FFF743F902463B69D31A022B01D966
:103070000323FEE14F4BD3F8943003F00203002BFF
:10308000EFD17B681B6803F00403002B00F0A680DF
:103090000023FB77474B9B6D03F08053002B0DD132
:1030A000444B9B6D434A43F080539365414B9B6D6A
:1030B00003F08053BB60BB680123FB773E4B1B686A
:1030C00003F48073002B18D13B4B1B683A4A43F43E
:1030D00080731360FFF70AF9386108E0FFF706F91B
:1030E00002463B69D31A022B01D90323C1E1324BBB
:1030F0001B6803F48073002BF0D07B689B68012B66
:1031000008D12C4BD3F890302A4A43F00103C2F87F
:10311000903024E07B689B68052B10D1254BD3F8B9
:103120009030244A43F00403C2F89030214BD3F886
:103130009030204A43F00103C2F890300FE01D4B5D
:10314000D3F890301B4A23F00103C2F89030194B9A
:10315000D3F89030174A23F00403C2F890307B680C
:103160009B68002B16D0FFF7C1F838610AE0FFF723
:10317000BDF802463B69D31A41F28832934201D925
:10318000032376E10B4BD3F8903003F00203002BBE
:10319000EDD01AE0FFF7AAF838610FE0FFF7A6F8C4
:1031A00002463B69D31A41F28832934206D903237F
:1031B0005FE100BF0010024000700040AA4BD3F84E
:1031C000903003F00203002BE8D1FB7F012B05D1E7
:1031D000A54B9B6DA44A23F0805393657B681B68C5
:1031E00003F02003002B3CD07B685B6A002B1CD0D3
:1031F0009D4BD3F898309C4A43F00103C2F89830B5
:10320000FFF774F8386108E0FFF770F802463B6991
:10321000D31A022B01D903232BE1934BD3F8983017
:1032200003F00203002BEFD01BE08F4BD3F8983054
:103230008D4A23F00103C2F89830FFF757F8386140
:1032400008E0FFF753F802463B69D31A022B01D975
:1032500003230EE1844BD3F8983003F00203002BD4
:10326000EFD17B689B6A002B00F002817B689B6A30
:10327000022B40F0C5807C4BDB687B617B6903F0EF
:1032800003027B68DB6A9A422CD17B6903F07002EF
:103290007B681B6B013B1B019A4223D17B6903F4C2
:1032A000FE427B685B6B1B029A421BD17B6903F079
:1032B00078427B689B6BDB069A4213D17B6903F4EF
:1032C000C0027B68DB6B5B08013B5B059A4209D15E
:1032D0007B6903F0C0627B681B6C5B08013B5B068B
:1032E0009A4267D0BB690C2B62D05F4B1B6803F01E
:1032F0008063002B01D00123BBE05B4B1B685A4A63
:1033000023F080731360FEF7F1FF386108E0FEF7E9
:10331000EDFF02463B69D31A022B01D90323A8E033
:10332000514B1B6803F00073002BF0D14E4BDA6851
:103330004E4B13407A68D16A7A68126B013A1201D7
:1033400011437A68526B120211437A68D26B5208A9
:10335000013A520511437A68126C5208013A52063A
:1033600011437A68926BD2060A433F491343CB60FC
:103370003D4B1B683C4A43F0807313603A4BDB685B
:10338000394A43F08073D360FEF7B0FF386108E03C
:10339000FEF7ACFF02463B69D31A022B01D9032387
:1033A00067E0314B1B6803F00073002BF0D05FE047
:1033B00001235EE02C4B1B6803F00073002B57D1F8
:1033C000294B1B68284A43F080731360264BDB6847
:1033D000254A43F08073D360FEF788FF386108E028
:1033E000FEF784FF02463B69D31A022B01D903235F
:1033F0003FE01D4B1B6803F00073002BF0D037E05B
:10340000BB690C2B2DD0184B1B68174A23F0807317
:103410001360154B1B6803F00063002B05D1124BA2
:10342000DB68114A23F00303D3600F4BDB680E4ABD
:1034300023F0887323F48033D360FEF757FF38619D
:1034400008E0FEF753FF02463B69D31A022B01D96D
:1034500003230EE0044B1B6803F00073002BF0D134
:1034600006E0012305E000BF001002408C809D01B2
:10347000002318462037BD4680BD00BF80B584B00C
:1034800000AF786039607B68002B01D10123C8E070
:10349000664B1B6803F007033A689A4210D9634BE6
:1034A0001B6823F0070261493B6813430B605F4BC5
:1034B0001B6803F007033A689A4201D00123B0E089
:1034C0007B681B6803F00103002B4CD07B685B68B2
:1034D000032B07D1564B1B6803F00073002B21D13F
:1034E00001239EE07B685B68022B07D1504B1B6871
:1034F00003F40033002B15D1012392E07B685B6855
:10350000002B07D14A4B1B6803F00203002B09D1A3
:10351000012386E0464B1B6803F48063002B01D136
:1035200001237EE0424B9B6823F003027B685B68CB
:103530003F4913438B60FEF7D9FEF8600AE0FEF7BF
:10354000D5FE0246FB68D31A41F28832934201D974
:10355000032366E0364B9B6803F00C027B685B68D4
:103560009B009A42EBD17B681B6803F00203002B9F
:1035700008D02F4B9B6823F0F0027B689B682C4996
:1035800013438B60294B1B6803F007033A689A4288
:1035900010D2264B1B6823F0070224493B681343D3
:1035A0000B60224B1B6803F007033A689A4201D074
:1035B000012336E07B681B6803F00403002B08D06E
:1035C0001B4B9B6823F4E0627B68DB68184913435C
:1035D0008B607B681B6803F00803002B09D0144B39
:1035E0009B6823F460527B681B69DB00104913431E
:1035F0008B6000F025F802460D4B9B681B0903F019
:103600000F030C49CB5C03F01F0322FA03F30A4AB1
:1036100013600A4B1B681846FEF71CFE0346FB723C
:10362000FB7A18461037BD4680BD00BF002002401F
:103630000010024074D100086C000020200000201F
:1036400080B489B000AF0023FB610023BB613D4B18
:103650009B6803F00C033B613A4BDB6803F0030308
:10366000FB603B69002B05D03B690C2B21D1FB682B
:10367000012B1ED1334B1B6803F00803002B07D12D
:10368000304BD3F894301B0A03F00F03FB6105E0C5
:103690002C4B1B681B0903F00F03FB612A4AFB69D3
:1036A00052F82330FB613B69002B0DD1FB69BB61F4
:1036B0000AE03B69042B02D1244BBB6104E03B6967
:1036C000082B01D1224BBB613B690C2B34D11D4B24
:1036D000DB6803F00303BB60BB68022B03D0BB684D
:1036E000032B03D005E0194B7B6105E0184B7B6190
:1036F00002E0FB697B6100BF124BDB681B0903F032
:10370000070301337B600F4BDB681B0A03F07F0369
:103710007A6902FB03F27B68B2FBF3F37B61094B2E
:10372000DB685B0E03F0030301335B003B607A69E7
:103730003B68B2FBF3F3BB61BB6918462437BD4657
:1037400080BC7047001002408CD100080024F400B7
:1037500000127A0080B400AF024B1B681846BD46C9
:1037600080BC70476C00002080B500AFFFF7F2FF0F
:103770000246064B9B681B0A03F007030449CB5C17
:1037800003F01F0322FA03F3184680BD0010024025
:1037900084D1000880B500AFFFF7DCFF0246064B7E
:1037A0009B68DB0A03F007030449CB5C03F01F03AB
:1037B00022FA03F3184680BD0010024084D10008AD
:1037C00080B586B000AF786000233B612A4B9B6DCB
:1037D00003F08053002B03D0FFF7D0F9786114E099
:1037E000254B9B6D244A43F080539365224B9B6D80
:1037F00003F08053FB60FB68FFF7C0F978611E4B54
:103800009B6D1D4A23F0805393657B69B3F5007F60
:103810000BD17B68802B19D97B68A02B02D902239E
:103820003B6113E001233B6110E07B68802B02D9F0
:1038300003233B610AE07B68802B02D102233B61BA
:1038400004E07B68702B01D101233B610B4B1B68AB
:1038500023F0070209493B6913430B60074B1B68C0
:1038600003F007033A699A4201D0012300E00023E4
:1038700018461837BD4680BD0010024000200240A7
:1038800080B586B000AF78600023FB740023BB7462
:103890007B681B6803F40063002B31D07B685B6C92
:1038A000B3F5400F1AD0B3F5400F14D8002B09D050
:1038B000B3F5000F0FD15D4BDB685C4A43F48033F6
:1038C000D3600CE07B6804330021184600F0F0F967
:1038D0000346FB7403E00123FB7400E000BFFB7CA4
:1038E000002B0BD1514BD3F8883023F440027B6876
:1038F0005B6C4E491343C1F8883001E0FB7CBB741C
:103900007B681B6803F40033002B00F09E800023CB
:103910007B74464B9B6D03F08053002B01D1012338
:1039200000E00023002B0DD0404B9B6D3F4A43F03D
:10393000805393653D4B9B6D03F08053BB60BB6828
:1039400001237B743A4B1B68394A43F4807313603C
:10395000FEF7CCFCF86009E0FEF7C8FC0246FB6805
:10396000D31A022B02D90323FB7405E0304B1B68EA
:1039700003F48073002BEFD0FB7C002B5AD12B4B30
:10398000D3F8903003F440737B617B69002B1ED029
:103990007B689B6D7A699A4219D0244BD3F890309A
:1039A00023F440737B61214BD3F890301F4A43F4DA
:1039B0008033C2F890301D4BD3F890301B4A23F46B
:1039C0008033C2F89030194A7B69C2F890307B6925
:1039D00003F00103002B16D0FEF788FCF8600BE023
:1039E000FEF784FC0246FB68D31A41F28832934208
:1039F00002D90323FB7406E00C4BD3F8903003F09C
:103A00000203002BECD0FB7C002B0BD1074BD3F82F
:103A1000903023F440727B689B6D04491343C1F8D6
:103A2000903009E0FB7CBB7406E000BF0010024050
:103A300000700040FB7CBB747B7C012B05D19B4B51
:103A40009B6D9A4A23F0805393657B681B6803F053
:103A50000103002B0AD0954BD3F8883023F00302E2
:103A60007B681B6A91491343C1F888307B681B68E7
:103A700003F00203002B0AD08C4BD3F8883023F0DC
:103A80000C027B685B6A89491343C1F888307B6804
:103A90001B6803F00403002B0AD0844BD3F8883052
:103AA00023F030027B689B6A80491343C1F8883059
:103AB0007B681B6803F02003002B0AD07B4BD3F8F4
:103AC000883023F440627B68DB6A78491343C1F88D
:103AD00088307B681B6803F40073002B0AD0734B9B
:103AE000D3F8883023F440227B68DB6B6F491343A3
:103AF000C1F888307B681B6803F48063002B0AD010
:103B00006A4BD3F8883023F440127B681B6C6749FA
:103B10001343C1F888307B681B6803F04003002B17
:103B20000AD0624BD3F8883023F440527B681B6B79
:103B30005E491343C1F888307B681B6803F080033B
:103B4000002B0AD0594BD3F8883023F440427B68CD
:103B50005B6B56491343C1F888307B681B6803F4DC
:103B60008073002B0AD0514BD3F8883023F44032B5
:103B70007B689B6B4D491343C1F888307B681B6899
:103B800003F40023002B28D0484BD3F8883023F0CF
:103B900040627B689B6C45491343C1F888307B6861
:103BA0009B6CB3F1006F06D1404BDB683F4A43F496
:103BB0008013D36011E07B689B6CB3F1806F0CD1F4
:103BC0007B6804330121184600F072F80346FB7449
:103BD000FB7C002B01D0FB7CBB747B681B6803F46F
:103BE0008023002B28D0314BD3F8883023F040625B
:103BF0007B68DB6C2D491343C1F888307B68DB6C34
:103C0000B3F1006F06D1294BDB68284A43F48013D7
:103C1000D36011E07B68DB6CB3F1806F0CD17B6803
:103C200004330121184600F043F80346FB74FB7C83
:103C3000002B01D0FB7CBB747B681B6803F48043C2
:103C4000002B1CD0194BD3F8883023F040527B68EE
:103C50001B6D16491343C1F888307B681B6DB3F1A7
:103C6000805F0CD17B6804330221184600F020F8F5
:103C70000346FB74FB7C002B01D0FB7CBB747B6890
:103C80001B6803F40043002B0AD0084BD3F888309C
:103C900023F080427B685B6D04491343C1F8883090
:103CA000BB7C18461837BD4680BD00BF00100240DF
:103CB00080B584B000AF786039600023FB73744B2B
:103CC000DB6803F00303002B18D0714BDB6803F0B3
:103CD00003027B681B689A420DD17B681B68002B2E
:103CE00009D06B4BDB681B0903F007035A1C7B6888
:103CF0005B689A4247D00123FB7344E07B681B68F2
:103D0000032B18D0032B25D8012B02D0022B09D06E
:103D100020E05F4B1B6803F00203002B1DD1012341
:103D2000FB731AE05A4B1B6803F48063002B16D117
:103D30000123FB7313E0564B1B6803F40033002B85
:103D40000FD1534B1B6803F48023002B09D10123AF
:103D5000FB7306E00123FB7304E000BF02E000BF39
:103D600000E000BFFB7B002B0DD1494BDB6823F04B
:103D700073027B6819687B685B68013B1B010B431E
:103D800043491343CB60FB7B002B7CD1404B1B682A
:103D90003F4A23F080631360FEF7A8FAB86009E099
:103DA000FEF7A4FA0246BB68D31A022B02D90323FA
:103DB000FB7305E0364B1B6803F00063002BEFD16B
:103DC000FB7B002B5FD13B68002B10D1304B1B6974
:103DD00023F0784323F4FE437A68926811027A68EC
:103DE000D268D2060A432A4913430B6127E03B6895
:103DF000012B12D1264B1B6923F4C00323F4FE438D
:103E00007A68926811027A6812695208013A52057A
:103E10000A431F4913430B6111E01D4B1B6923F03B
:103E2000C06323F4FE437A68926811027A6852698B
:103E30005208013A52060A43154913430B61144BC9
:103E40001B68134A43F080631360FEF74FFAB860B3
:103E500009E0FEF74BFA0246BB68D31A022B02D9DF
:103E60000323FB7305E00A4B1B6803F00063002B80
:103E7000EFD0FB7B002B06D1054B1A697B689B6951
:103E8000034913430B61FB7B18461037BD4680BDC9
:103E90000010024080B584B000AF78607B68002BD2
:103EA00001D101237CE07B6800229A627B6893F851
:103EB0005D30DBB2002B06D17B68002283F85C20EA
:103EC000786803F07DFE7B68022283F85D207B68C2
:103ED0001B681A687B681B6822F040021A607B68C6
:103EE000DB68B3F5E06F02D90023FB6002E04FF41A
:103EF0008053FB607B68DB68B3F5706F07D07B682D
:103F0000DB68B3F5E06F02D07B6800229A627B68C1
:103F10001B6B002B0BD17B68DB68B3F5E06F03D91B
:103F20007B6802221A6302E07B6801221A637B68C5
:103F30005A687B689B681A437B681B691A437B68D5
:103F40005B691A437B689B6903F400731A437B68BF
:103F5000DB691A437B681B6A42EA03017B689A6A41
:103F60007B681B680A431A607B689B691B0C03F023
:103F700004027B685B6A1A437B685B6B1A437B684D
:103F8000DB6842EA03017B681B68FA680A435A60EF
:103F90007B6800221A667B68012283F85D2000237B
:103FA00018461037BD4680BD80B588B000AFF860B8
:103FB000B9603B601346FB800023FB77FB6893F8F6
:103FC0005C30012B01D1022350E1FB68012283F810
:103FD0005C20FEF78BF9B861FB88FB82FB6893F8E5
:103FE0005D30DBB2012B02D00223FB7735E1BB68E9
:103FF000002B02D0FB88002B02D10123FB772CE1A0
:10400000FB68032283F85D20FB6800221A66FB68C8
:10401000BA689A63FB68FA889A87FB68FA88DA8735
:10402000FB6800221A64FB680022A3F84420FB68A6
:104030000022A3F84620FB6800221A65FB680022D4
:10404000DA64FB689B68B3F5004F07D1FB681B6817
:104050001A68FB681B6842F480421A60FB681B68A0
:104060001B6803F04003402B07D0FB681B681A68ED
:10407000FB681B6842F040021A60FB68DB68B3F51E
:10408000E06F4BD9FB685B68002B02D0FB8A012BE9
:104090003ED1FB689B6B1A88FB681B68DA60FB6883
:1040A0009B6B9A1CFB689A63FB68DB8F9BB2013B9E
:1040B0009AB2FB68DA872BE0FB681B689B6803F009
:1040C0000203022B12D1FB689B6B1A88FB681B68EA
:1040D000DA60FB689B6B9A1CFB689A63FB68DB8F5A
:1040E0009BB2013B9AB2FB68DA8711E0FEF7FEF85B
:1040F0000246BB69D31A3A689A4203D83B68B3F1C7
:10410000FF3F02D13B68002B02D10323FB77A4E0E1
:10411000FB68DB8F9BB2002BCED17CE0FB685B6839
:10412000002B02D0FB8A012B70D1FB68DB8F9BB286
:10413000012B12D9FB689B6B1A88FB681B68DA603D
:10414000FB689B6B9A1CFB689A63FB68DB8F9BB2D6
:10415000023B9AB2FB68DA8758E0FB689A6BFB680F
:104160001B680C3312781A70FB689B6B5A1CFB6837
:104170009A63FB68DB8F9BB2013B9AB2FB68DA87DC
:1041800044E0FB681B689B6803F00203022B2BD101
:10419000FB68DB8F9BB2012B12D9FB689B6B1A88E3
:1041A000FB681B68DA60FB689B6B9A1CFB689A6370
:1041B000FB68DB8F9BB2023B9AB2FB68DA8725E093
:1041C000FB689A6BFB681B680C3312781A70FB68EB
:1041D0009B6B5A1CFB689A63FB68DB8F9BB2013BAD
:1041E0009AB2FB68DA8711E0FEF780F80246BB69F5
:1041F000D31A3A689A4203D83B68B3F1FF3F02D121
:104200003B68002B02D10323FB7726E0FB68DB8FA2
:104210009BB2002BB5D1BA693968F86800F001F992
:104220000346002B02D0FB6820221A66FB689B68BD
:10423000002B0AD100233B61FB681B68DB683B61F4
:10424000FB681B689B683B613B69FB681B6E002B2E
:1042500002D00123FB7700E000BFFB68012283F856
:104260005D20FB68002283F85C20FB7F1846203726
:10427000BD4680BD80B584B000AFF860B9603B60DA
:104280001346FB714CE03B68B3F1FF3F48D0FEF7AB
:104290002DF80246BB69D31A3A689A4202D93B68A4
:1042A000002B3DD1FB681B685A68FB681B6822F035
:1042B000E0025A60FB685B68B3F5827F11D1FB684E
:1042C0009B68B3F5004F04D0FB689B68B3F5806F23
:1042D00007D1FB681B681A68FB681B6822F0400264
:1042E0001A60FB689B6AB3F5005F0FD1FB681B681F
:1042F0001A68FB681B6822F400521A60FB681B688E
:104300001A68FB681B6842F400521A60FB680122BD
:1043100083F85D20FB68002283F85C2003230FE014
:10432000FB681B689A68BB681340BA689A420CBF66
:1043300001230023DBB21A46FB799A42A3D1002362
:1043400018461037BD4680BD80B584B000AFF86018
:10435000B9607A603B6057E0BB68B3F5C06F06D1C7
:104360007B68002B03D1FB681B680C331B783B6810
:10437000B3F1FF3F48D0FDF7B9FF0246BB69D31A3E
:104380003A689A4202D93B68002B3DD1FB681B6812
:104390005A68FB681B6822F0E0025A60FB685B68A1
:1043A000B3F5827F11D1FB689B68B3F5004F04D051
:1043B000FB689B68B3F5806F07D1FB681B681A68C0
:1043C000FB681B6822F040021A60FB689B6AB3F529
:1043D000005F0FD1FB681B681A68FB681B6822F43A
:1043E00000521A60FB681B681A68FB681B6842F47D
:1043F00000521A60FB68012283F85D20FB680022EE
:1044000083F85C20032308E0FB681B689A68BB689C
:1044100013407A689A429FD1002318461037BD4650
:1044200080BD80B586B002AFF860B9607A607B6805
:104430000093BB6800224FF4C051F868FFF784FF77
:104440000346002B07D0FB681B6E43F02002FB687D
:104450001A66032327E07B680093BB680022802153
:10446000F868FFF707FF0346002B07D0FB681B6EB9
:1044700043F02002FB681A66032314E07B68009374
:10448000BB6800224FF4C061F868FFF75DFF034688
:10449000002B07D0FB681B6E43F02002FB681A66F6
:1044A000032300E0002318461037BD4680BD80B5C9
:1044B00082B000AF78607B68002B01D101231DE042
:1044C0007B6893F83D30DBB2002B06D17B6800227D
:1044D00083F83C20786803F04BFD7B68022283F868
:1044E0003D207B681A687B6804331946104600F04B
:1044F00067FA7B68012283F83D20002318460837BD
:10450000BD4680BD80B485B000AF78607B681B6815
:10451000DA687B681B6842F00102DA607B681B681E
:104520009A680C4B1340FB60FB68062B0BD0FB68B2
:10453000B3F5803F07D07B681B681A687B681B68EF
:1045400042F001021A60002318461437BD4680BCB1
:10455000704700BF0700010080B483B000AF7860EF
:104560007B681B68DA687B681B6822F00102DA60EE
:104570007B681B681A6A41F211131340002B0FD19C
:104580007B681B681A6A40F244431340002B07D132
:104590007B681B681A687B681B6822F001021A603E
:1045A000002318460C37BD4680BC704780B582B0EA
:1045B00000AF78607B681B681B6903F00203022B65
:1045C00022D17B681B68DB6803F00203022B1BD13E
:1045D0007B681B686FF002021A617B6801221A7700
:1045E0007B681B689B6903F00303002B03D078688A
:1045F00000F0CAF905E0786800F0BDF9786800F0CD
:10460000CCF97B6800221A777B681B681B6903F072
:104610000403042B22D17B681B68DB6803F00403CE
:10462000042B1BD17B681B686FF004021A617B6846
:1046300002221A777B681B689B6903F44073002B86
:1046400003D0786800F0A0F905E0786800F093F9ED
:10465000786800F0A2F97B6800221A777B681B68F3
:104660001B6903F00803082B22D17B681B68DB68F9
:1046700003F00803082B1BD17B681B686FF008024E
:104680001A617B6804221A777B681B68DB6903F078
:104690000303002B03D0786800F076F905E0786812
:1046A00000F069F9786800F078F97B6800221A77E1
:1046B0007B681B681B6903F01003102B22D17B68F9
:1046C0001B68DB6803F01003102B1BD17B681B6891
:1046D0006FF010021A617B6808221A777B681B68EA
:1046E000DB6903F44073002B03D0786800F04CF9C9
:1046F00005E0786800F03FF9786800F04EF97B68D3
:1047000000221A777B681B681B6903F00103012BE9
:104710000ED17B681B68DB6803F00103012B07D116
:104720007B681B686FF001021A61786803F062FC15
:104730007B681B681B6903F08003802B0ED17B68AC
:104740001B68DB6803F08003802B07D17B681B6844
:104750006FF080021A61786800F099FA7B681B6834
:104760001B6903F48073B3F5807F0ED17B681B68EF
:10477000DB6803F08003802B07D17B681B686FF434
:1047800080721A61786800F08BFA7B681B681B697D
:1047900003F04003402B0ED17B681B68DB6803F0FD
:1047A0004003402B07D17B681B686FF040021A6101
:1047B000786800F0FBF87B681B681B6903F0200336
:1047C000202B0ED17B681B68DB6803F02003202BB5
:1047D00007D17B681B686FF020021A61786800F0CF
:1047E0004DFA00BF0837BD4680BD80B584B000AF2C
:1047F000786039607B6893F83C30012B01D102234B
:10480000B5E07B68012283F83C207B68022283F8B4
:104810003D207B681B689B68FB60FB6823F480334A
:1048200023F07703FB60FB6823F47F43FB607B6826
:104830001B68FA689A603B681B68B3F5005F3ED05E
:10484000B3F5005F00F28780B3F5805F00F08580EC
:10485000B3F5805F7FD8702B1AD0702B7BD8602B7C
:1048600050D0602B77D8502B3CD0502B73D8402B96
:1048700058D0402B6FD8302B64D0302B6BD8202BE6
:1048800060D0202B67D8002B5CD0102B5AD062E070
:104890007B6818683B6899683B685A683B68DB68C6
:1048A00000F067F97B681B689B68FB60FB6843F05E
:1048B0007703FB607B681B68FA689A604EE07B6850
:1048C00018683B6899683B685A683B68DB6800F089
:1048D00050F97B681B689A687B681B6842F48042C9
:1048E0009A603BE07B6818683B6859683B68DB6806
:1048F0001A4600F0C7F87B681B685021184600F084
:104900001EF92BE07B6818683B6859683B68DB68D8
:104910001A4600F0E5F87B681B686021184600F035
:104920000EF91BE07B6818683B6859683B68DB68D8
:104930001A4600F0A7F87B681B684021184600F073
:10494000FEF80BE07B681A683B681B681946104646
:1049500000F0F5F802E000BF00E000BF7B68012234
:1049600083F83D207B68002283F83C200023184612
:104970001037BD4680BD80B483B000AF786000BF03
:104980000C37BD4680BC704780B483B000AF786000
:1049900000BF0C37BD4680BC704780B483B000AF09
:1049A000786000BF0C37BD4680BC704780B483B0D0
:1049B00000AF786000BF0C37BD4680BC7047000078
:1049C00080B485B000AF786039607B681B68FB609D
:1049D0007B68294A934203D07B68B3F1804F08D1AA
:1049E000FB6823F07003FB603B685B68FA68134365
:1049F000FB607B68204A93420BD07B68B3F1804F09
:104A000007D07B681D4A934203D07B681C4A9342BF
:104A100008D1FB6823F44073FB603B68DB68FA68ED
:104A20001343FB60FB6823F080023B685B69134320
:104A3000FB607B68FA681A603B689A687B68DA6298
:104A40003B681A687B689A627B680B4A934207D07E
:104A50007B680A4A934203D07B68094A934203D198
:104A60003B681A697B681A637B6801225A6100BF40
:104A70001437BD4680BC7047002C01400040014007
:104A80000044014080B487B000AFF860B9607A603C
:104A9000FB681B6A7B61FB681B6A23F00102FB68F1
:104AA0001A62FB689B693B613B6923F0F0033B6141
:104AB0007B681B013A6913433B617B6923F00A035E
:104AC0007B617A69BB6813437B61FB683A699A61D1
:104AD000FB687A691A6200BF1C37BD4680BC70470C
:104AE00080B487B000AFF860B9607A60FB681B6A79
:104AF00023F01002FB681A62FB689B697B61FB680C
:104B00001B6A3B617B6923F470437B617B681B03F9
:104B10007A6913437B613B6923F0A0033B61BB6867
:104B20001B013A6913433B61FB687A699A61FB6830
:104B30003A691A6200BF1C37BD4680BC704780B41A
:104B400085B000AF786039607B689B68FB60FB686C
:104B500023F07003FB603A68FB68134343F00703DC
:104B6000FB607B68FA689A6000BF1437BD4680BC62
:104B7000704780B487B000AFF860B9607A603B607E
:104B8000FB689B687B617B6923F47F437B613B68A7
:104B90001A027B681A43BB6813437A6913437B612B
:104BA000FB687A699A6000BF1C37BD4680BC7047BD
:104BB00080B485B000AF786039607B6893F83C3092
:104BC000012B01D102234FE07B68012283F83C20B6
:104BD0007B68022283F83D207B681B685B68FB6072
:104BE0007B681B689B68BB607B681B68214A93429B
:104BF00008D1FB6823F47003FB603B685B68FA68CC
:104C00001343FB60FB6823F07003FB603B681B6889
:104C1000FA681343FB607B681B68FA685A607B681C
:104C20001B68144A934209D07B681B68B3F1804F1C
:104C300004D07B681B68104A93420CD1BB6823F0F8
:104C40008003BB603B689B68BA681343BB607B68AA
:104C50001B68BA689A607B68012283F83D207B68F4
:104C6000002283F83C20002318461437BD4680BC40
:104C7000704700BF002C01400040014080B483B069
:104C800000AF786000BF0C37BD4680BC704780B471
:104C900083B000AF786000BF0C37BD4680BC704762
:104CA00080B483B000AF786000BF0C37BD4680BCD5
:104CB000704780B582B000AF78607B68002B01D16F
:104CC000012340E07B685B6F002B06D17B680022EC
:104CD00083F87020786803F039FA7B6824225A67D9
:104CE0007B681B681A687B681B6822F001021A60E7
:104CF000786800F00DFA0346012B01D1012322E070
:104D00007B685B6A002B02D0786800F025FD7B6829
:104D10001B685A687B681B6822F490425A607B6863
:104D20001B689A687B681B6822F02A029A607B687D
:104D30001B681A687B681B6842F001021A60786879
:104D400000F0ABFD034618460837BD4680BD80B570
:104D50008AB002AFF860B9603B601346FB80FB6825
:104D60005B6F202B40F08180BB68002B02D0FB885A
:104D7000002B01D1012379E0FB6893F87030012BFF
:104D800001D1022372E0FB68012283F87020FB68E6
:104D90000022DA67FB6821225A67FDF7A7FA7861DB
:104DA000FB68FA88A3F85020FB68FA88A3F8522021
:104DB000FB689B68B3F5805F08D1FB681B69002B1B
:104DC00004D10023FB61BB68BB6103E0BB68FB61EE
:104DD0000023BB61FB68002283F870202DE03B6854
:104DE00000937B6900228021F86800F09BFD034658
:104DF000002B01D0032339E0FB69002B0BD1BB69E9
:104E00001A88FB681B68C2F3080292B21A85BB6954
:104E10000233BB6108E0FB691A78FB681B6892B239
:104E20001A85FB690133FB61FB68B3F852309BB212
:104E3000013B9AB2FB68A3F85220FB68B3F85230EA
:104E40009BB2002BCBD13B6800937B6900224021B1
:104E5000F86800F067FD0346002B01D0032305E04E
:104E6000FB6820225A67002300E0022318462037FF
:104E7000BD4680BD80B588B000AF78607B681B6898
:104E8000DB69FB617B681B681B68BB617B681B6817
:104E90009B687B61FA6940F60F0313403B613B69F5
:104EA000002B13D1FB6903F02003002B0ED0BB694C
:104EB00003F02003002B09D07B681B6E002B00F051
:104EC00013817B681B6E786898470DE13B69002B66
:104ED00000F0D6807B6903F00103002B05D1BB698C
:104EE00003F49073002B00F0CB80FB6903F0010307
:104EF000002B0ED0BB6903F48073002B09D07B68B4
:104F00001B6801221A627B68DB6F43F001027B6839
:104F1000DA67FB6903F00203002B0ED07B6903F014
:104F20000103002B09D07B681B6802221A627B6890
:104F3000DB6F43F004027B68DA67FB6903F004036C
:104F4000002B0ED07B6903F00103002B09D07B6896
:104F50001B6804221A627B68DB6F43F002027B68E5
:104F6000DA67FB6903F00803002B13D0BB6903F079
:104F70002003002B04D17B6903F00103002B09D02F
:104F80007B681B6808221A627B68DB6F43F00802AB
:104F90007B68DA67FB6903F40063002B0FD0BB6901
:104FA00003F08063002B0AD07B681B684FF400621B
:104FB0001A627B68DB6F43F020027B68DA677B68EC
:104FC000DB6F002B00F09280FB6903F02003002BC5
:104FD0000CD0BB6903F02003002B07D07B681B6E4D
:104FE000002B03D07B681B6E786898477B68DB6F6B
:104FF000FB607B681B689B6803F04003402B04D078
:10500000FB6803F02803002B31D0786800F005FD21
:105010007B681B689B6803F04003402B23D17B68AF
:105020001B689A687B681B6822F040029A607B6864
:10503000DB6E002B13D07B68DB6E2F4A9A637B6894
:10504000DB6E1846FDF78BFA0346002B16D07B6803
:10505000DB6E9B6B7A68D26E104698470EE07868DC
:1050600003F074F90AE0786803F070F906E07868F4
:1050700003F06CF97B680022DA6737E000BF35E0A7
:10508000FB6903F48013002B0DD07B6903F48003CC
:10509000002B08D07B681B684FF480121A62786876
:1050A00000F009FD25E0FB6903F08003002B0DD023
:1050B000BB6903F08003002B08D07B685B6E002B7C
:1050C00016D07B685B6E7868984711E0FB6903F047
:1050D0004003002B0DD0BB6903F04003002B08D028
:1050E000786800F0CFFC04E000BF02E000BF00E001
:1050F00000BF2037BD4680BD595A000880B483B038
:1051000000AF786000BF0C37BD4680BC7047000020
:105110002DE9B04F8CB000AFF86000237B62002314
:1051200087F823300023FB61FB689A68FB681B69E2
:105130001A43FB685B691A43FB68DB691343FB6234
:10514000FB681B681A68AA4B1340FA681268F96A70
:105150000B431360FB681B685B6823F44051FB68DA
:10516000DA68FB681B680A435A60FB689B69FB624C
:10517000FB681B689F4A934204D0FB681B6AFA6A6B
:105180001343FB62FB681B689B6823F43061FB6878
:105190001B68FA6A0A439A60FB681B68964A934246
:1051A00026D1964BD3F8883003F00303032B1BD88A
:1051B00001A252F823F000BFC9510008D9510008DC
:1051C000D1510008E1510008012387F82B30ABE0F2
:1051D000022387F82B30A7E0042387F82B30A3E0C5
:1051E000082387F82B309FE0102387F82B309BE0B3
:1051F000FB681B68824A934238D1804BD3F88830D1
:1052000003F00C030C2B2DD801A252F823F000BFA1
:1052100045520008655200086552000865520008B2
:105220005552000865520008655200086552000892
:105230004D5200086552000865520008655200088A
:105240005D520008002387F82B306DE0022387F8B9
:105250002B3069E0042387F82B3065E0082387F8BA
:105260002B3061E0102387F82B305DE0FB681B6872
:10527000644A934225D1614BD3F8883003F0300360
:10528000302B16D0302B18D8202B0AD0202B14D836
:10529000002B02D0102B08D00FE0002387F82B3012
:1052A00042E0022387F82B303EE0042387F82B30BE
:1052B0003AE0082387F82B3036E0102387F82B30AC
:1052C00032E0FB681B684B4A93422AD14B4BD3F820
:1052D000883003F44063B3F5406F1AD0B3F5406FE4
:1052E0001BD8B3F5006F0CD0B3F5006F15D8002BA9
:1052F00003D0B3F5806F08D00FE0002387F82B3080
:1053000012E0022387F82B300EE0042387F82B30BD
:105310000AE0082387F82B3006E0102387F82B30AB
:1053200002E0102387F82B30FB681B68314A934258
:1053300040F0028197F82B30082B24D801A252F8B4
:1053400023F000BF69530008875300087153000819
:1053500087530008775300088753000887530008D5
:10536000875300087F530008FEF7FEF9F8610EE04E
:10537000254BFB610BE0FEF763F9F86107E04FF4A2
:105380000043FB6103E0012387F8233000BFFB6982
:10539000002B00F0D481FB685A6813465B0013446D
:1053A000FA699A4205D3FB685B681B03FA699A4263
:1053B00003D9012387F82330C1E197F82B30082B5C
:1053C00000F2A58001A252F823F000BF0D5400089E
:1053D0000F5500085B5400080F5500089154000851
:1053E0000F5500080F5500080F550008DF5400083E
:1053F000F369FFEF008000400038014000100240D8
:1054000000440040004800400024F400FEF7ACF9DE
:10541000B861BB6918464FF000014FF000024FF031
:1054200000030B0243EA10630202F9684968490865
:1054300008464FF0000114183C604B417B60FB684C
:105440005B681A464FF00003D7E90001FAF7C0FE87
:1054500002460B4613467B625DE0FB685B685B08B7
:105460001A464FF00003B3484FF0000112EB000A58
:1054700043EB010BFB685B681A464FF00003504694
:105480005946FAF7A5FE02460B4613467B6242E0F8
:10549000FEF7D6F8B861BB6918464FF000014FF02F
:1054A00000024FF000030B0243EA10630202F968A6
:1054B0004968490808464FF0000112EB000843EB29
:1054C0000109FB685B681A464FF0000340464946F5
:1054D000FAF77EFE02460B4613467B621BE0FB6832
:1054E0005B685B081A464FF0000312F5000443F1B5
:1054F0000005FB685B681A464FF00003204629460A
:10550000FAF766FE02460B4613467B6203E0012370
:1055100087F8233000BF7B6AB3F5407F08D37B6AEE
:10552000B3F5801F04D2FB681B687A6ADA6006E173
:10553000012387F8233002E1FB68DB69B3F5004FF4
:1055400040F0868097F82B30082B5FD801A252F8E4
:1055500023F000BF7955000899550008B955000897
:105560000D560008D55500080D5600080D560008C8
:105570000D560008F5550008FEF7F6F8B861BB694E
:105580005A00FB685B685B081A44FB685B68B2FB07
:10559000F3F39BB27B623DE0FEF7FCF8B861BB69B8
:1055A0005A00FB685B685B081A44FB685B68B2FBE7
:1055B000F3F39BB27B622DE0FB685B685B0803F151
:1055C000F47303F59043FA685268B3FBF2F39BB2AD
:1055D0007B621FE0FEF734F8B861BB695A00FB68D4
:1055E0005B685B081A44FB685B68B2FBF3F39BB231
:1055F0007B620FE0FB685B685B0803F58032FB6849
:105600005B68B2FBF3F39BB27B6203E0012387F894
:10561000233000BF7B6A0F2B16D97B6AB3F5803F1E
:1056200012D27B6A9BB223F00F03FB827B6A5B087A
:105630009BB203F007039AB2FB8A1343FB82FB6819
:105640001B68FA8ADA607AE0012387F8233076E073
:1056500097F82B30082B5CD801A252F823F000BF3A
:1056600085560008A3560008C156000813570008C5
:10567000DD56000813570008135700081357000899
:10568000FB560008FEF770F8B861FB685B685A08C3
:10569000BB691A44FB685B68B2FBF3F39BB27B62A5
:1056A0003BE0FEF777F8B861FB685B685A08BB69B6
:1056B0001A44FB685B68B2FBF3F39BB27B622CE09D
:1056C000FB685B685B0803F5740303F51053FA6825
:1056D0005268B3FBF2F39BB27B621EE0FDF7B0FFB2
:1056E000B861FB685B685A08BB691A44FB685B6871
:1056F000B2FBF3F39BB27B620FE0FB685B685B0875
:1057000003F50042FB685B68B2FBF3F39BB27B627C
:1057100003E0012387F8233000BF7B6A0F2B0BD9EE
:105720007B6AB3F5803F07D2FB681B687A6ADA6050
:1057300005E000BF000024F4012387F82330FB6854
:1057400000221A66FB6800225A6697F82330184632
:105750003037BD46BDE8B08F80B483B000AF78600D
:105760007B685B6A03F00103002B0AD07B681B682F
:105770005B6823F400317B689A6A7B681B680A4384
:105780005A607B685B6A03F00203002B0AD07B68D7
:105790001B685B6823F480317B68DA6A7B681B686E
:1057A0000A435A607B685B6A03F00403002B0AD04B
:1057B0007B681B685B6823F480217B681A6B7B68BD
:1057C0001B680A435A607B685B6A03F00803002B7E
:1057D0000AD07B681B685B6823F400417B685A6BC6
:1057E0007B681B680A435A607B685B6A03F010039E
:1057F000002B0AD07B681B689B6823F480517B6870
:105800009A6B7B681B680A439A607B685B6A03F04B
:105810002003002B0AD07B681B689B6823F400518F
:105820007B68DA6B7B681B680A439A607B685B6AFB
:1058300003F04003002B1AD07B681B685B6823F4DD
:1058400080117B681A6C7B681B680A435A607B680E
:105850001B6CB3F5801F0AD17B681B685B6823F45F
:10586000C0017B685A6C7B681B680A435A607B687E
:105870005B6A03F08003002B0AD07B681B685B68BF
:1058800023F400217B689A6C7B681B680A435A608A
:1058900000BF0C37BD4680BC704780B586B002AFF4
:1058A00078607B680022DA67FCF720FDF8607B688F
:1058B0001B681B6803F00803082B0ED16FF07E43B2
:1058C0000093FB6800224FF40011786800F02AF87A
:1058D0000346002B01D0032320E07B681B681B6874
:1058E00003F00403042B0ED16FF07E430093FB689A
:1058F00000224FF48001786800F014F80346002B72
:1059000001D003230AE07B6820225A677B682022AB
:105910009A677B68002283F87020002318461037AE
:10592000BD4680BD80B584B000AFF860B9603B6013
:105930001346FB715DE0BB69B3F1FF3F59D0FCF743
:10594000D5FC02463B68D31ABA699A4202D3BB69B6
:10595000002B1BD1FB681B681A68FB681B6822F4CC
:10596000D0721A60FB681B689A68FB681B6822F09B
:1059700001029A60FB6820225A67FB6820229A671E
:10598000FB68002283F87020032342E0FB681B6859
:105990001B6803F00403002B2BD0FB681B68DB693A
:1059A00003F40063B3F5006F23D1FB681B684FF469
:1059B00000621A62FB681B681A68FB681B6822F4A5
:1059C000D0721A60FB681B689A68FB681B6822F03B
:1059D00001029A60FB6820225A67FB6820229A67BE
:1059E000FB682022DA67FB68002283F8702003231B
:1059F0000FE0FB681B68DA69BB681340BA689A421B
:105A00000CBF01230023DBB21A46FB799A4292D0E5
:105A1000002318461037BD4680BD80B483B000AF68
:105A200078607B681B681A687B681B6822F4907238
:105A30001A607B681B689A687B681B6822F0010209
:105A40009A607B6820229A677B6800221A6600BFF2
:105A50000C37BD4680BC704780B584B000AF78601D
:105A60007B689B6AFB60FB680022A3F85A20FB68F6
:105A70000022A3F85220F86802F068FC00BF10373B
:105A8000BD4680BD80B582B000AF78607B681B6882
:105A90001A687B681B6822F040021A607B6820222B
:105AA0005A677B6800225A667868FFF727FB00BFB9
:105AB0000837BD4680BD80B483B000AF786000BFBA
:105AC0000C37BD4680BC70470FB480B582B000AFC4
:105AD00007F114037B607B683A694FF480610648E4
